:020000040800F2
:10000000600600200D020008490200084B020008AB
:100010004D0200084F0200085102000800000000D5
:100020000000000000000000000000005302000873
:10003000550200080000000057020008590200089D
:100040005B0200085B0200085B0200085B0200081C
:100050005B0200085B0200085B0200085B0200080C
:100060005B0200085B0200085B0200085B020008FC
:100070005B0200085B0200085B0200085B020008EC
:100080005B0200085B0200085B0200085B020008DC
:100090005B0200085B0200085B0200085B020008CC
:1000A0005B0200085B0200085B0200085B020008BC
:1000B0005B0200085B0200085B0200085B020008AC
:1000C0005B0200085B0200085B0200085B0200089C
:1000D0005B0200085B0200085B0200085B0200088C
:1000E0005B0200085B0200085B0200085B0200087C
:1000F0005B0200085B0200085B0200085B0200086C
:100100005B0200085B0200085B0200085B0200085B
:100110005B0200085B0200085B0200085B0200084B
:100120005B0200085B0200085B0200085B0200083B
:100130005B0200085B0200085B0200085B0200082B
:100140005B0200085B0200085B0200085B0200081B
:100150005B0200085B0200085B0200085B0200080B
:100160005B0200085B0200085B0200085B020008FB
:100170005B0200085B0200085B0200080000000050
:100180005B0200085B02000800F002F800F02EF8A5
:100190000AA090E8000C82448344AAF10107DA45E2
:1001A00001D100F023F8AFF2090EBAE80F0013F006
:1001B000010F18BFFB1A43F001031847BC160000DB
:1001C000CC1600000023002400250026103A28BF8A
:1001D00078C1FBD8520728BF30C148BF0B607047B9
:1001E0001FB501F0B3FA1FBD10B510BD00F066F8E1
:1001F0001146FFF7F5FF00F0A7FD00F084F803B407
:10020000FFF7F2FF03BC00F087F80000164817491B
:10021000174B99423CBF50F8042B41F8042BF8D3FC
:1002200014494FF000028B4238BF43F8042BFAD335
:10023000DFF84400016841F470010160BFF34F8FA3
:10024000BFF36F8F0D480047FEE7FEE7FEE7FEE7CE
:10025000FEE7FEE7FEE7FEE7FEE7FEE7084809499E
:10026000094A0A4B70470000881800080000002067
:10027000000000206006002088ED00E089010008F1
:100280006000002060060020600200206002002064
:1002900070477047704710B500F008F8006810BD4F
:1002A00010B5044600F002F8046010BD0048704725
:1002B0000000002000487047000000207546FFF74E
:1002C000F9FFAE4605006946534620F00700854613
:1002D00018B020B5FFF7C2FFBDE820404FF0000680
:1002E0004FF000074FF000084FF0000B21F007011E
:1002F000AC46ACE8C009ACE8C009ACE8C009ACE861
:10030000C0098D46704710B50446AFF30080204603
:10031000BDE81040FFF773BF01491820ABBEFEE7F0
:1003200026000200704703B401984100009850EA8B
:10033000C12018BF04204A0D18BF40F0010040F250
:10034000FF72B2EB515F08BF40F00200012808BF06
:10035000052002B07047000010B52F499FED2C1BFF
:100360002DED020B84B0059820F000408842D8BFE4
:100370009DED040B2DDD2949884209D1049840B92F
:100380004FF00100FFF78CFF00F0B2FC06B010BD8B
:1003900005DB9DED040B00F09FFC06B010BD684628
:1003A0009DED040B00F0A0F810F0030004BF9DEDDC
:1003B000021B9DED000B0CD001280ED09DED021B01
:1003C0009DED000B022817D0012000F0E1FB06B0E4
:1003D00010BD00F0A9FA06B010BD9DED021B9DED09
:1003E000000B012000F0D4FB51EC100B00F054FD89
:1003F00006B041EC100B10BD00F096FA51EC100B5A
:1004000000F04AFD06B041EC100B10BD00000000EA
:100410000000000000000000FB21E93F0000F07F29
:1004200010B52F499FED2C1B2DED020B84B00598C4
:1004300020F000408842DCBF00209DED040B32DD3F
:100440002849884209D1049840B94FF00100FFF7CC
:1004500027FF00F04DFC06B010BD05DB9DED040B41
:1004600000F03AFC06B010BD68469DED040B00F0AC
:100470003BF810F0030011D0012818D09DED021BAD
:100480009DED000B02281AD000F04EFA51EC100B33
:1004900000F002FD06B041EC100B10BD9DED021BFB
:1004A0009DED000B012000F073FB06B010BD9DED2B
:1004B000021B9DED000B00F037FA06B010BD0120C5
:1004C00000F066FB51EC100B00F0E6FC06B041ECCE
:1004D000100B10BD00000000000000000000000034
:1004E000FB21E93F0000F07F2DE9F14F04462DED9F
:1004F000020B2DED088B8AB09FEDE70B80ED020B10
:10050000139EE74826F0004585420ADC9DED120B5C
:10051000002084ED000B0AB0BDEC088B03B000F0A6
:10052000FFB9E0489FEDE0AB9FEDE1BBA84247DD9E
:10053000E14F9FEDE39B9FEDE48B9DED120B53ECA0
:100540001A2B51EC100B002E1CDD01F015F841ECBC
:10055000100BBD4208D053EC1B2B51EC100B01F0DB
:100560000BF8C4E900010BE053EC192B51EC100B14
:1005700001F002F853EC182B00F0FEFFC4E9000173
:100580000120C8E700F094FC41EC100BBD4208D0FC
:1005900053EC1B2B51EC100B00F08AFCC4E900015A
:1005A0000BE053EC192B51EC100B00F081FC53ECD9
:1005B000182B00F07DFCC4E900014FF0FF30AAE7E2
:1005C000C348A84279DB9DED120B51EC100B00F0F3
:1005D000AFFB41EC180B9FEDC00B53EC102B00F060
:1005E000C1FE9FEDBF1B53EC112B00F061FC00F02E
:1005F0005FFE074600F08BFE41EC190B53EC1A2B03
:1006000000F0B0FE53EC182B00F0AAFF41EC180BE1
:1006100053EC1B2B51EC190B00F0A4FEDFF8C8A221
:1006200041EC100B4FEA15580125FA4453EC102BFE
:1006300051EC180B00F0A0FF032DC4E900013DD0E0
:10064000C1F30A5005EB4511A8EB000011398142B6
:1006500034DA0AEB051BB0EE48AA9BED000BF0EE76
:1006600068AA53EC102B51EC190B00F07BFE41EC07
:100670001B0B51EC1A0B53EC1B2B00F07DFF41ECD4
:10068000180B51EC1A0B53EC182B00F075FF53ECC0
:100690001B2B00F071FF9BED020B41EC1A0B53EC8E
:1006A000102B51EC190B00F05DFE53EC1A2B00F0EF
:1006B00063FF41EC100B6D1CB8E70EE0002EA8BFE5
:1006C0003846BFF628AF94ED000B51EC100B00F04C
:1006D000E3FBC4E9000178421DE7C6F3130040F4D0
:1006E000801EC6F30A50A0F2F530471100F01F0536
:1006F000C5F12000DDF848B0089000200690079072
:100700000520EC467949002D07EB0002794408BF2B
:1007100051F8221009D051F8223001EB8201AB4090
:100720004A68089922FA01F11943A1FB0E26A1FBA0
:100730000B131A449A4234BF0123002303EB06082B
:100740000CEB8003D3E901A60E448E4234BF012195
:10075000002192448A4411B1924502D903E09245A6
:1007600001D2012100E00021C3E901A641444CF877
:100770002010011EA0F10100C4DC029800F100501D
:10078000850F0298DDE903678000DDF8148000F032
:10079000BEFD41EC1A0B304600F0D0FD9FED541B1E
:1007A00053EC112B00F0DEFD41EC1B0B384600F042
:1007B000C5FD9FED511B53EC112B00F0D3FD41EC17
:1007C000180B404600F0BAFD9FED4D1B53EC112B6A
:1007D00000F0C8FD41EC190B51EC180B53EC192B30
:1007E00000F066FB53EC1B2B00F062FB53EC1A2B62
:1007F00000F05EFBCDE90801002008909DED080B9C
:1008000053EC1A2B51EC100B00F0B6FE53EC1B2BE3
:1008100000F0B2FE53EC182B00F0AEFE53EC192B97
:1008200000F09EFE9FED381B53EC112B00F09AFD5B
:100830009FED370B41EC180B53EC102B9DED080B83
:1008400051EC100B00F08EFD53EC182B00F030FB38
:100850009FED310B41EC180B53EC102B9DED080B69
:1008600051EC100B00F07EFD53EC182B00F020FB38
:1008700041EC100B139810F0004F06D06D4251EC74
:10088000100B00F009FB41EC100B284684ED000B27
:1008900041E6000000000000000000000000000031
:1008A000FB21E93F7CD9024000004054FB21F93F85
:1008B0003163621A61B4D03DFB21F93F00000000B2
:1008C0000000601A61B4D03D7370032E8A19A33BF7
:1008D000FB2139410000000083C8C96D305FE43F4F
:1008E000000000000000E03F5A110000A8100000C6
:1008F000000000000000103E000000000000103C5E
:10090000000000000000103A182D4454FB21F93D6E
:100910003326A611460B113C00000054FB21F93D83
:1009200030BCBDE8C08F000010B52DED040B2DEDDF
:10093000088B82B0B0EE419AF0EE619A0B9820F0ED
:1009400000449FED4BABB4F1795F11DA9DED0A0BDA
:1009500051EC100B00F0ACFC002801BFB0EE4A0ACD
:10096000F0EE6A0A02B0BDEC088B04BF04B010BD03
:100970009DED0A0B53EC102B51EC100B00F0F2FC28
:1009800041EC180B3C480621B0EE480AF0EE680A2C
:10099000784400F081F853EC182B51EC100B00F068
:1009A000E1FC9DED0A0B41EC1B0B53EC192B51ECB8
:1009B000100B00F0D7FC41EC190B53EC1B2B51EC46
:1009C000180B00F0CFFC53EC192B00F0D5FD9FED78
:1009D0002C0B41EC190B53EC102B51EC180B00F0C5
:1009E000C1FC41EC100B2848844210DA53EC192B5F
:1009F00051EC100B00F0C0FD53EC1A2B00F0B0FDD1
:100A000041EC100B02B0BDEC088B04B010BD1F48C8
:100A1000A042BCBF9FED1E1B8DED001B06DBA4F5A5
:100A200000100190002000909DED001B51EC100B78
:100A300053EC112B00F0A0FD9DED000B41EC180BC9
:100A400053EC102B51EC1A0B00F096FD41EC1A0BF5
:100A500053EC192B51EC180B00F08EFD53EC1A2BB4
:100A600000F07EFD41EC100BCCE700000000000020
:100A7000000000000000F03FC40D00000000000076
:100A8000000000000000E03F3333D33F0000E93FA7
:100A9000000000000000D23F70B504462DED028B2F
:100AA0004D1E00EBC500B0EE408AF0EE608A90ED7E
:100AB000000B35F0060017D053EC182B51EC100B3F
:100AC00000F050FC41EC100B6D1E04EBC50090EDE6
:100AD000001B51EC100B53EC112B00F0E9F941EC29
:100AE000100B35F00600E7D1022D36D0042D1CD0B6
:100AF000062D1CBFBDEC028B70BD53EC182B51ECC6
:100B0000100B00F02FFC94ED0A1B53EC112B00F09E
:100B1000CFF953EC182B00F025FC94ED081B53EC97
:100B2000112B00F0C5F941EC100B53EC182B51ECD4
:100B3000100B00F017FC94ED061B53EC112B00F08A
:100B4000B7F953EC182B00F00DFC94ED040B53ECAB
:100B5000102B00F0ADF941EC100B53EC182B51ECBD
:100B6000100B00F0FFFB94ED021B53EC112B00F077
:100B70009FF953EC182B00F0F5FB94ED001B53ECA0
:100B8000112B00F095F9BDEC028B41EC100B70BD00
:100B900031B504462DED040B2DED0A8BB0EE41BAB4
:100BA000F0EE61BA0B989DED0A0B20F00040B0F119
:100BB000795F0DDA51EC100BFFF7B5FB042808BF85
:100BC00000F0A6F89DED0A0B00F07AB805B030BD34
:100BD00053EC102B51EC100B00F0C4FB41EC180B44
:100BE0009DED0A0B53EC182B51EC100B00F0BAFBE7
:100BF00041EC190B2C48B0EE480AF0EE680A0521CA
:100C00007844FFF749FF9FED2ACBB0EE40AAF0EE03
:100C100060AA9CB353EC1C2B51EC190B00F0A2FB07
:100C200041EC1C0B53EC1A2B51EC190B00F09AFB06
:100C30009FED210B41EC190B53EC102B51EC1B0BCE
:100C400000F090FB53EC192B00F096FC53EC182BA2
:100C500000F088FB53EC1B2B00F08EFC53EC1C2B9C
:100C600000F08AFC9DED0A1B53EC112B00F078FC80
:100C700000F02CB805B041EC100B30BDFFE753EC91
:100C80001A2B51EC180B00F06DFB53EC1C2B00F0F1
:100C90000FF953EC192B00F065FB9DED0A1B53EC8B
:100CA000112B00F005F9E3E74C0C000000000000F8
:100CB000495555555555C5BF000000000000E03F9F
:100CC000BDEC088BBDEC02CBFFF780BFBDEC088B01
:100CD000BDEC02CBFFF7CEBF10B553EC102B51EC9F
:100CE000100B00F0E5F841EC100B10BD0000000007
:100CF0009FED050B10B553EC102B51EC100B00F0D1
:100D00007FF941EC100B10BD000000000000000056
:100D10009FED050B10B553EC102B51EC100B00F0B0
:100D200021FB41EC100B10BD000000000000001082
:100D300082B0CDE9000121F0004001909DED000B53
:100D400002B051EC100B70472DED088B0027B84610
:100D500000244B48C06C40F001004949C864084673
:100D6000806D40F0005088654FF09040006820F49E
:100D700070604FF0904108600846006840F4706071
:100D800008604048006840F004103E49086008468A
:100D9000006840F0381008600846006840F0011014
:100DA000086000266BE0374808300660354814308C
:100DB0000660002460E0204600F0C0FA41EC1B0B06
:100DC0009FED310B53EC102B00F0CCFA41EC1A0BD9
:100DD000B0EE4A0AF0EE6A0AFFF7BEFAB0EE409AA9
:100DE000F0EE609A9FED2A0B53EC102B51EC190B8F
:100DF00000F0B8FA41EC180B00F05AFA0746C7F5B4
:100E00000067204600F09AFA41EC1B0B9FED1E0B89
:100E100053EC102B00F0A6FA41EC1A0BB0EE4A0A84
:100E2000F0EE6A0AFFF7FCFAB0EE409AF0EE609A34
:100E30009FED170B53EC102B51EC190B00F092FAAD
:100E400041EC180B00F034FA8046C8F500680D48F4
:100E5000083007600B481430C0F800800948001DB6
:100E6000006840F003000749091D0860002500E004
:100E70006D1C0A2DFCD9641CB4F5B47F9BD392E79A
:100E8000001002400074004011E7FAA146DF913FD4
:100E90000000000000FC9F4081F00041704780F09E
:100EA0000040704721F00041704720F0004070473B
:100EB00010B591EA030F48BF83F0004300F164834B
:100EC000841A71EB030C05D2121943EB0C03001BBF
:100ED00061EB0C01DFF824E14FEA1154A4EB135C41
:100EE0001EEA430F18BF9EEA445F73D023EA0E0345
:100EF000DCF1200E21EA045143F4801332D322FAAC
:100F00000CFE10EB0E0023FA0CFE41EB0E01CCF1AF
:100F1000200E03FA0EFE10EB0E0051F10001B1F5A8
:100F2000801FCCF1200E32D201EB045112FA0EF2E6
:100F3000BDE8104058BF7047401C38BF5FEA42020E
:100F400018BF7047002814BF20F0010041F10001D4
:100F50004FEA410313F5001F38BF7047A1F1C041AC
:100F600000F0F8BA012A43EB0302ACF1200CDCF1EB
:100F70001F0E32BF4FF0000E23FA0CF310EB0300EC
:100F800041EB0451B4EB115FD0D0A1EB045101F55A
:100F9000801149085FEA300001EB04510ED350F193
:100FA000000038BF12FA0EFE08D1BDE81040C9E7B4
:100FB000401C38BF5FEA4202CAD1C3E7BDE8104017
:100FC0004FEA410313F5001F38BF7047A1F1C0413C
:100FD00000F0C0BA9EEA445F08D011EA5E0FBDE897
:100FE000104004BF01F0004100207047BDE81040F0
:100FF00070B500F061FA00BF64FBBE3E0000E0FF88
:101000002DE9C04130B4DFF8A0C23CEA111418BF8A
:101010003CEA131400F0EC8081EA03051CEA111489
:1010200044EAD57418BF1CEA131500F0C780A4EB7E
:1010300005044FF0004545EAC12145EAC32341EAD2
:10104000505143EA525304F17F74994204F500343D
:101050004FEAC0204FEAC22208BF904200F09C80B5
:101060004FEA13650FF24016765D4FEA134506FB13
:1010700005F7C7F1807706FB07F74FEAD737A7FBDD
:1010800003687642C8F58038A7FB06CE38BFA8F1C2
:10109000010807FB08E64FF0000EA6FB028CE6FBFA
:1010A00003CEDCF1000CCEF1004E38BFAEF1010EE4
:1010B000A6FB0C584FF000074FF00005E6FB0E872B
:1010C000A1FB08C6A0FB07CE16EB0E0645F10005F6
:1010D000E1FB076515F1E04E7EBFA4F580345FEAC1
:1010E00046066D4116F1800745F100054FEA1727C6
:1010F0004FEA066647EA0567A6F1DE46B6F1805F6D
:101100004FEA15251FD9384624F0010C05EBC471B0
:10111000BCF1FE6F01EB0C1102D8F0BCBDE8008100
:1011200024425CBF01F5801E9EEAC47F02D4F0BC5D
:10113000BDE80081244238D4F0BCA1F1C041BDE833
:10114000004100F007BA4FEAD22242EA43524FEA86
:10115000D323A7FB02864FEAD02040EA415007FB89
:1011600003661EEA0E0F4FEAD12105FB026658BF47
:10117000A6EB0056B6EB00564FEA520E4EEAC37E7F
:1011800018EB0E0E56EB530EBDD518EB02085E4160
:101190007F1C55F10005B6E74FF480154FF00007AE
:1011A0004FF000064FF00008ADE7F0BC4FF0000034
:1011B00001F1C04101F00041BDE8008111EA0C1FBE
:1011C0000CEA131500D00CE013EA0C1F00F0258088
:1011D0004FF00000F0BC81EA030101F00041BDE8DE
:1011E0000081F0BCBDE8004181EA030100F0B2B922
:1011F000F0BCBDE8004170B500F05EF9097EFC3E30
:1012000000F007B881EA03014FF0000001F000414F
:10121000704781EA030100F09DB9F0BCBDE80041D0
:101220004FF0000021497047FFFDFBF9F7F5F4F29C
:10123000F0EEEDEBE9E8E6E4E3E1E0DEDDDBDAD871
:10124000D7D5D4D3D1D0CFCDCCCBCAC8C7C6C5C4CF
:10125000C2C1C0BFBEBDBCBBBAB9B8B7B6B5B4B3E6
:10126000B2B1B0AFAEADACABAAA9A8A8A7A6A5A4D1
:10127000A3A3A2A1A09F9F9E9D9C9C9B9A99999895
:101280009797969595949393929191908F8F8E8E38
:101290008D8C8C8B8B8A89898888878786858584C5
:1012A00084838382828181800000FF070000F87FB1
:1012B0004FEA41034FEA5353A3F58063D3F11E0372
:1012C000C8BFD3F1210C0CDD4FF0004242EAC1222D
:1012D00042EA505232FA03FC8CEAE17CACEBE1705A
:1012E0007047102BC4BF0020704703F5787CBCF119
:1012F000FF3F04D06FF0004282EA2100704770B5D2
:1013000000F0DAF84992248000207047F2E710F0EC
:10131000004248BF4042B0FA80F310FA03F10AD00D
:10132000C3F11D0303F580634FEA415002EB035202
:1013300002EBD12170474FF000007047B0FA80F304
:1013400010FA03F10AD0C3F11D0303F580634FEADD
:1013500041504FEA035202EBD12170474FF0000099
:1013600070470000DFF848C170B51CEA111E1EBFAF
:101370001CEA13159EEA0C0F95EA0C0F00F06F8023
:1013800081EA030423EA4C134EEAD47E21EA4C118D
:1013900041F4801143F48013AE44A1FB024CA0FB46
:1013A0000365AEF17F7E361955EB0C05A1FB034CAE
:1013B0004CF10003A0FB021C16EB0C06654153F137
:1013C0000003094218BF46F0010613F4007F0BD159
:1013D0004FEA03314FEA0530340341EA155140EA40
:1013E00016506FF003020AE04FEAC3214FEAC5200E
:1013F000F40241EA555140EA56506FF0020202EB06
:101400002E4201EB025585EACE710AD05FEA440C08
:1014100018BF24F0004450F1000041F1000120EA1F
:10142000D47040F2FE7C624500D270BDA84214BF69
:101430004FF080444FF04044002E08BF0024BEF11E
:10144000806FA8BFA1F1C041BDE8704080F28280EA
:101450004FF0000001F1C04101F0004170479EEAE9
:101460000C0F0CEA131518BF95EA0C0F06D04FF0BD
:10147000000081EA030E0EF0004170BD00F01CF880
:101480008900013E00F007B800F009B84FEA430CAC
:101490005FEA5C5C08D081EA030100F05BB84FEAC8
:1014A000410C5FEA5C5CF6D14FF0000001497047E7
:1014B0000000FF070000F87F0EF1020E2EF0030E71
:1014C0005EF8046B364205D4012A43EB030515F59B
:1014D000001F12D8012841EB010C1CF5001F0CD88D
:1014E0000ED14FEAD17C15F5001F0CEB4C0C0CF122
:1014F000020C08BF4CEBD37C04E04FF0080C01E079
:101500004FEAD37C0CEB4C0526FA05F606F00706ED
:10151000B6F1040C06D20EEB860CBDE870404CF020
:10152000010C6047DFE80CF0090B02024FF00041AC
:101530004FF00000A1F5002170BD194610460128AA
:1015400051EB010418BFD4F5001484BF002001F052
:10155000004170BD0808A0F500114FEA3101704745
:1015600091EA030F10B581F000413FF5A9AC83F07B
:10157000004300F009B8000010B591EA030F48BF1E
:1015800083F000433FF59CAC841A71EB030C07D247
:1015900012198CF0004C43EB0C03001B61EB0C01A7
:1015A000DFF8A4E14FEA1154A4EB135C1EEA430FE9
:1015B00018BF9EEA445F00F0B08023EA6E035242F7
:1015C00021EA0451C3EB6E0338BF5B1EDCF1200E31
:1015D00025D322FA0CFE10EB0E0043FA0CFE41EB71
:1015E0000E01CCF1200E03FA0EFE10EB0E0051F1AD
:1015F0000001CCF1200E29D412FA0EF201EB0451B5
:10160000BDE8104058BF7047401C1CBFB2F1004FEE
:10161000704700280CBF491C20F00100704712EBF6
:10162000020E43EB030218BF4FF0010E4EEA4202D6
:10163000ACF1200CDCF11E0E54D943FA0CFE10EB79
:101640000E0051F1FF31CCF11E0ED5D50EF1010E79
:1016500012FA0EFE404141EB010101EB445C5FEAEE
:101660005C5C10D910EBDE7001EB045138BFBEF1A9
:10167000004FBDE8104018BF704700280CBF491C40
:1016800020F00100704730D24FEAD42C11F5001140
:1016900024F400641BD0B1FA81F20B3AA41AA41E00
:1016A000D2F12003914030FA03F31943904001EB4B
:1016B000CC71002C01EB0451BDE81040A8BF70476D
:1016C00001F1C0414FF0000001F000417047B0FA55
:1016D00080F310FA03F100D110BDE41A173C48055D
:1016E000C90AE4E701EB045110BD491001EB0451B4
:1016F000BDE810404FEA300002E04FF000017047B3
:101700004A0008BF0042F8D0B2F5001F28BF70475A
:1017100001F000414FF0000070479EEA445F07D09F
:1017200011EA5E0FBDE8104004BF002100207047A1
:10173000BDE8104070B5FFF7BFFE00BF40DFF63ECA
:1017400083F00041104670470000E0FF4FF040700A
:10175000E1EE100A704700004C5555555555A53F10
:101760007751C1166CC156BF9015CB19A001FA3E36
:10177000AD529C804F7E92BEC4B1B4BD9EEE213E60
:10178000D43888BEE9FAA8BD00004054FB21F93FD7
:101790003163621A61B4D03D0000601A61B4D03D7B
:1017A0007370032E8A19A33B0000002E8A19A33BF5
:1017B000C14920259A837B39000000000000000009
:1017C0006E83F9A22915444ED15727FCC0DD34F5AC
:1017D000999562DB4190433CAB6351FE61C5BBDE32
:1017E0003A6E24B7E0D24D42EA2E49061C92D10946
:1017F0001CEB1DFE3EA729B1F53582E88444BB2EC3
:1018000026709CE9417E5FB439D69139F43953830F
:101810008B5F849C3B28F9BDFF97F81F0F9805DE6E
:101820008B112FEF1F6D0A5ACF7E366DB709CB276C
:10183000663F464F2DEA5F9EC7BA27757BF1E5EB01
:10184000F739073DEA92528AB15FFB6B085D8D1F45
:10185000A6F810111111813FD561C119A0012ABF4D
:101860007DFEB157E31DC73EEB9C2B8AE6E55ABED1
:101870007CD5CF5A3AD9E53D8818000800000020F1
:0818800060060000C40100082D
:040000050800018965
:00000001FF
